{
  "_format": "hh-sol-artifact-1",
  "contractName": "Dwitter",
  "sourceName": "contracts/Dwitter.sol",
  "abi": [
    {
      "inputs": [
        {
          "internalType": "address",
          "name": "_wallet",
          "type": "address"
        }
      ],
      "name": "getUser",
      "outputs": [
        {
          "components": [
            {
              "internalType": "address",
              "name": "wallet",
              "type": "address"
            },
            {
              "internalType": "string",
              "name": "name",
              "type": "string"
            },
            {
              "internalType": "string",
              "name": "username",
              "type": "string"
            },
            {
              "internalType": "string",
              "name": "avatar",
              "type": "string"
            },
            {
              "internalType": "string",
              "name": "bio",
              "type": "string"
            }
          ],
          "internalType": "struct Dwitter.User",
          "name": "",
          "type": "tuple"
        }
      ],
      "stateMutability": "view",
      "type": "function"
    },
    {
      "inputs": [
        {
          "internalType": "string",
          "name": "_username",
          "type": "string"
        },
        {
          "internalType": "string",
          "name": "_name",
          "type": "string"
        },
        {
          "internalType": "string",
          "name": "_bio",
          "type": "string"
        },
        {
          "internalType": "string",
          "name": "_avatar",
          "type": "string"
        }
      ],
      "name": "signup",
      "outputs": [],
      "stateMutability": "nonpayable",
      "type": "function"
    },
    {
      "inputs": [
        {
          "internalType": "address",
          "name": "",
          "type": "address"
        }
      ],
      "name": "usernames",
      "outputs": [
        {
          "internalType": "string",
          "name": "",
          "type": "string"
        }
      ],
      "stateMutability": "view",
      "type": "function"
    },
    {
      "inputs": [
        {
          "internalType": "string",
          "name": "",
          "type": "string"
        }
      ],
      "name": "users",
      "outputs": [
        {
          "internalType": "address",
          "name": "wallet",
          "type": "address"
        },
        {
          "internalType": "string",
          "name": "name",
          "type": "string"
        },
        {
          "internalType": "string",
          "name": "username",
          "type": "string"
        },
        {
          "internalType": "string",
          "name": "avatar",
          "type": "string"
        },
        {
          "internalType": "string",
          "name": "bio",
          "type": "string"
        }
      ],
      "stateMutability": "view",
      "type": "function"
    }
  ],
  "bytecode": "0x608060405234801561001057600080fd5b50611261806100206000396000f3fe608060405234801561001057600080fd5b506004361061004c5760003560e01c8063689e1c03146100515780636f77926b14610085578063ee91877c146100b5578063fcf58fa5146100e5575b600080fd5b61006b60048036038101906100669190610b7d565b610101565b60405161007c959493929190610ec0565b60405180910390f35b61009f600480360381019061009a9190610b54565b61038d565b6040516100ac9190610f91565b60405180910390f35b6100cf60048036038101906100ca9190610b54565b6106a0565b6040516100dc9190610f2f565b60405180910390f35b6100ff60048036038101906100fa9190610bbe565b610740565b005b6001818051602081018201805184825260208301602085012081835280955050505050506000915090508060000160009054906101000a900473ffffffffffffffffffffffffffffffffffffffff1690806001018054610160906110ca565b80601f016020809104026020016040519081016040528092919081815260200182805461018c906110ca565b80156101d95780601f106101ae576101008083540402835291602001916101d9565b820191906000526020600020905b8154815290600101906020018083116101bc57829003601f168201915b5050505050908060020180546101ee906110ca565b80601f016020809104026020016040519081016040528092919081815260200182805461021a906110ca565b80156102675780601f1061023c57610100808354040283529160200191610267565b820191906000526020600020905b81548152906001019060200180831161024a57829003601f168201915b50505050509080600301805461027c906110ca565b80601f01602080910402602001604051908101604052809291908181526020018280546102a8906110ca565b80156102f55780601f106102ca576101008083540402835291602001916102f5565b820191906000526020600020905b8154815290600101906020018083116102d857829003601f168201915b50505050509080600401805461030a906110ca565b80601f0160208091040260200160405190810160405280929190818152602001828054610336906110ca565b80156103835780601f1061035857610100808354040283529160200191610383565b820191906000526020600020905b81548152906001019060200180831161036657829003601f168201915b5050505050905085565b6103956109ef565b60016000808473ffffffffffffffffffffffffffffffffffffffff1673ffffffffffffffffffffffffffffffffffffffff1681526020019081526020016000206040516103e29190610ea9565b90815260200160405180910390206040518060a00160405290816000820160009054906101000a900473ffffffffffffffffffffffffffffffffffffffff1673ffffffffffffffffffffffffffffffffffffffff1673ffffffffffffffffffffffffffffffffffffffff168152602001600182018054610461906110ca565b80601f016020809104026020016040519081016040528092919081815260200182805461048d906110ca565b80156104da5780601f106104af576101008083540402835291602001916104da565b820191906000526020600020905b8154815290600101906020018083116104bd57829003601f168201915b505050505081526020016002820180546104f3906110ca565b80601f016020809104026020016040519081016040528092919081815260200182805461051f906110ca565b801561056c5780601f106105415761010080835404028352916020019161056c565b820191906000526020600020905b81548152906001019060200180831161054f57829003601f168201915b50505050508152602001600382018054610585906110ca565b80601f01602080910402602001604051908101604052809291908181526020018280546105b1906110ca565b80156105fe5780601f106105d3576101008083540402835291602001916105fe565b820191906000526020600020905b8154815290600101906020018083116105e157829003601f168201915b50505050508152602001600482018054610617906110ca565b80601f0160208091040260200160405190810160405280929190818152602001828054610643906110ca565b80156106905780601f1061066557610100808354040283529160200191610690565b820191906000526020600020905b81548152906001019060200180831161067357829003601f168201915b5050505050815250509050919050565b600060205280600052604060002060009150905080546106bf906110ca565b80601f01602080910402602001604051908101604052809291908181526020018280546106eb906110ca565b80156107385780601f1061070d57610100808354040283529160200191610738565b820191906000526020600020905b81548152906001019060200180831161071b57829003601f168201915b505050505081565b60008060003373ffffffffffffffffffffffffffffffffffffffff1673ffffffffffffffffffffffffffffffffffffffff168152602001908152602001600020805461078b906110ca565b9050146107cd576040517f08c379a00000000000000000000000000000000000000000000000000000000081526004016107c490610f51565b60405180910390fd5b600073ffffffffffffffffffffffffffffffffffffffff166001856040516107f59190610e92565b908152602001604051809103902060000160009054906101000a900473ffffffffffffffffffffffffffffffffffffffff1673ffffffffffffffffffffffffffffffffffffffff161461087d576040517f08c379a000000000000000000000000000000000000000000000000000000000815260040161087490610f71565b60405180910390fd5b6040518060a001604052803373ffffffffffffffffffffffffffffffffffffffff168152602001848152602001858152602001828152602001838152506001856040516108ca9190610e92565b908152602001604051809103902060008201518160000160006101000a81548173ffffffffffffffffffffffffffffffffffffffff021916908373ffffffffffffffffffffffffffffffffffffffff160217905550602082015181600101908051906020019061093b929190610a34565b506040820151816002019080519060200190610958929190610a34565b506060820151816003019080519060200190610975929190610a34565b506080820151816004019080519060200190610992929190610a34565b50905050836000803373ffffffffffffffffffffffffffffffffffffffff1673ffffffffffffffffffffffffffffffffffffffff16815260200190815260200160002090805190602001906109e8929190610a34565b5050505050565b6040518060a00160405280600073ffffffffffffffffffffffffffffffffffffffff168152602001606081526020016060815260200160608152602001606081525090565b828054610a40906110ca565b90600052602060002090601f016020900481019282610a625760008555610aa9565b82601f10610a7b57805160ff1916838001178555610aa9565b82800160010185558215610aa9579182015b82811115610aa8578251825591602001919060010190610a8d565b5b509050610ab69190610aba565b5090565b5b80821115610ad3576000816000905550600101610abb565b5090565b6000610aea610ae584610fd8565b610fb3565b905082815260208101848484011115610b0257600080fd5b610b0d848285611088565b509392505050565b600081359050610b2481611214565b92915050565b600082601f830112610b3b57600080fd5b8135610b4b848260208601610ad7565b91505092915050565b600060208284031215610b6657600080fd5b6000610b7484828501610b15565b91505092915050565b600060208284031215610b8f57600080fd5b600082013567ffffffffffffffff811115610ba957600080fd5b610bb584828501610b2a565b91505092915050565b60008060008060808587031215610bd457600080fd5b600085013567ffffffffffffffff811115610bee57600080fd5b610bfa87828801610b2a565b945050602085013567ffffffffffffffff811115610c1757600080fd5b610c2387828801610b2a565b935050604085013567ffffffffffffffff811115610c4057600080fd5b610c4c87828801610b2a565b925050606085013567ffffffffffffffff811115610c6957600080fd5b610c7587828801610b2a565b91505092959194509250565b610c8a81611056565b82525050565b610c9981611056565b82525050565b6000610caa8261101e565b610cb48185611029565b9350610cc4818560208601611097565b610ccd8161118b565b840191505092915050565b6000610ce38261101e565b610ced818561103a565b9350610cfd818560208601611097565b610d068161118b565b840191505092915050565b6000610d1c8261101e565b610d26818561104b565b9350610d36818560208601611097565b80840191505092915050565b60008154610d4f816110ca565b610d59818661104b565b94506001821660008114610d745760018114610d8557610db8565b60ff19831686528186019350610db8565b610d8e85611009565b60005b83811015610db057815481890152600182019150602081019050610d91565b838801955050505b50505092915050565b6000610dce60138361103a565b9150610dd98261119c565b602082019050919050565b6000610df1602a8361103a565b9150610dfc826111c5565b604082019050919050565b600060a083016000830151610e1f6000860182610c81565b5060208301518482036020860152610e378282610c9f565b91505060408301518482036040860152610e518282610c9f565b91505060608301518482036060860152610e6b8282610c9f565b91505060808301518482036080860152610e858282610c9f565b9150508091505092915050565b6000610e9e8284610d11565b915081905092915050565b6000610eb58284610d42565b915081905092915050565b600060a082019050610ed56000830188610c90565b8181036020830152610ee78187610cd8565b90508181036040830152610efb8186610cd8565b90508181036060830152610f0f8185610cd8565b90508181036080830152610f238184610cd8565b90509695505050505050565b60006020820190508181036000830152610f498184610cd8565b905092915050565b60006020820190508181036000830152610f6a81610dc1565b9050919050565b60006020820190508181036000830152610f8a81610de4565b9050919050565b60006020820190508181036000830152610fab8184610e07565b905092915050565b6000610fbd610fce565b9050610fc982826110fc565b919050565b6000604051905090565b600067ffffffffffffffff821115610ff357610ff261115c565b5b610ffc8261118b565b9050602081019050919050565b60008190508160005260206000209050919050565b600081519050919050565b600082825260208201905092915050565b600082825260208201905092915050565b600081905092915050565b600061106182611068565b9050919050565b600073ffffffffffffffffffffffffffffffffffffffff82169050919050565b82818337600083830152505050565b60005b838110156110b557808201518184015260208101905061109a565b838111156110c4576000848401525b50505050565b600060028204905060018216806110e257607f821691505b602082108114156110f6576110f561112d565b5b50919050565b6111058261118b565b810181811067ffffffffffffffff821117156111245761112361115c565b5b80604052505050565b7f4e487b7100000000000000000000000000000000000000000000000000000000600052602260045260246000fd5b7f4e487b7100000000000000000000000000000000000000000000000000000000600052604160045260246000fd5b6000601f19601f8301169050919050565b7f5573657220616c72656164792065786973747300000000000000000000000000600082015250565b7f557365726e616d652069732074616b656e2c20706c656173652074727920616e60008201527f6f74686572206f6e652e00000000000000000000000000000000000000000000602082015250565b61121d81611056565b811461122857600080fd5b5056fea2646970667358221220bb226fa0aaeb59f7ac66c86592effa43e9cd3b588f849cac10702b09cc2942dd64736f6c63430008040033",
  "linkReferences": {},
  "deployedLinkReferences": {}
}