{
  "_format": "hh-sol-artifact-1",
  "contractName": "Dwitter",
  "sourceName": "contracts/Dwitter.sol",
  "abi": [
    {
      "inputs": [
        {
          "internalType": "uint256",
          "name": "",
          "type": "uint256"
        }
      ],
      "name": "dweets",
      "outputs": [
        {
          "internalType": "address",
          "name": "author",
          "type": "address"
        },
        {
          "internalType": "string",
          "name": "content",
          "type": "string"
        },
        {
          "internalType": "uint256",
          "name": "timestamp",
          "type": "uint256"
        },
        {
          "internalType": "uint256",
          "name": "likes",
          "type": "uint256"
        }
      ],
      "stateMutability": "view",
      "type": "function"
    },
    {
      "inputs": [],
      "name": "getDweets",
      "outputs": [
        {
          "components": [
            {
              "internalType": "address",
              "name": "author",
              "type": "address"
            },
            {
              "internalType": "string",
              "name": "content",
              "type": "string"
            },
            {
              "internalType": "uint256",
              "name": "timestamp",
              "type": "uint256"
            },
            {
              "internalType": "uint256",
              "name": "likes",
              "type": "uint256"
            }
          ],
          "internalType": "struct Dwitter.Dweet[]",
          "name": "",
          "type": "tuple[]"
        }
      ],
      "stateMutability": "view",
      "type": "function"
    },
    {
      "inputs": [
        {
          "internalType": "address",
          "name": "_wallet",
          "type": "address"
        }
      ],
      "name": "getUser",
      "outputs": [
        {
          "components": [
            {
              "internalType": "address",
              "name": "wallet",
              "type": "address"
            },
            {
              "internalType": "string",
              "name": "name",
              "type": "string"
            },
            {
              "internalType": "string",
              "name": "username",
              "type": "string"
            },
            {
              "internalType": "string",
              "name": "bio",
              "type": "string"
            },
            {
              "internalType": "string",
              "name": "avatar",
              "type": "string"
            }
          ],
          "internalType": "struct Dwitter.User",
          "name": "",
          "type": "tuple"
        }
      ],
      "stateMutability": "view",
      "type": "function"
    },
    {
      "inputs": [
        {
          "internalType": "string",
          "name": "_content",
          "type": "string"
        }
      ],
      "name": "postDweet",
      "outputs": [],
      "stateMutability": "nonpayable",
      "type": "function"
    },
    {
      "inputs": [
        {
          "internalType": "string",
          "name": "_username",
          "type": "string"
        },
        {
          "internalType": "string",
          "name": "_name",
          "type": "string"
        },
        {
          "internalType": "string",
          "name": "_bio",
          "type": "string"
        },
        {
          "internalType": "string",
          "name": "_avatar",
          "type": "string"
        }
      ],
      "name": "signup",
      "outputs": [],
      "stateMutability": "nonpayable",
      "type": "function"
    },
    {
      "inputs": [
        {
          "internalType": "address",
          "name": "",
          "type": "address"
        }
      ],
      "name": "usernames",
      "outputs": [
        {
          "internalType": "string",
          "name": "",
          "type": "string"
        }
      ],
      "stateMutability": "view",
      "type": "function"
    },
    {
      "inputs": [
        {
          "internalType": "string",
          "name": "",
          "type": "string"
        }
      ],
      "name": "users",
      "outputs": [
        {
          "internalType": "address",
          "name": "wallet",
          "type": "address"
        },
        {
          "internalType": "string",
          "name": "name",
          "type": "string"
        },
        {
          "internalType": "string",
          "name": "username",
          "type": "string"
        },
        {
          "internalType": "string",
          "name": "bio",
          "type": "string"
        },
        {
          "internalType": "string",
          "name": "avatar",
          "type": "string"
        }
      ],
      "stateMutability": "view",
      "type": "function"
    }
  ],
  "bytecode": "0x608060405234801561001057600080fd5b50611b07806100206000396000f3fe608060405234801561001057600080fd5b506004361061007d5760003560e01c80636f77926b1161005b5780636f77926b14610105578063d7798e5b14610135578063ee91877c14610153578063fcf58fa5146101835761007d565b806337dc190c14610082578063675164a4146100b5578063689e1c03146100d1575b600080fd5b61009c60048036038101906100979190611176565b61019f565b6040516100ac94939291906115c0565b60405180910390f35b6100cf60048036038101906100ca9190611072565b610287565b005b6100eb60048036038101906100e69190611072565b610483565b6040516100fc959493929190611551565b60405180910390f35b61011f600480360381019061011a9190611049565b61070f565b60405161012c91906116f0565b60405180910390f35b61013d610a23565b60405161014a919061160c565b60405180910390f35b61016d60048036038101906101689190611049565b610b7e565b60405161017a919061162e565b60405180910390f35b61019d600480360381019061019891906110b3565b610c1e565b005b600081815481106101af57600080fd5b90600052602060002090600402016000915090508060000160009054906101000a900473ffffffffffffffffffffffffffffffffffffffff16908060010180546101f89061186c565b80601f01602080910402602001604051908101604052809291908181526020018280546102249061186c565b80156102715780601f1061024657610100808354040283529160200191610271565b820191906000526020600020905b81548152906001019060200180831161025457829003601f168201915b5050505050908060020154908060030154905084565b6000600160003373ffffffffffffffffffffffffffffffffffffffff1673ffffffffffffffffffffffffffffffffffffffff16815260200190815260200160002080546102d39061186c565b905011610315576040517f08c379a000000000000000000000000000000000000000000000000000000000815260040161030c90611670565b60405180910390fd5b6000815111610359576040517f08c379a0000000000000000000000000000000000000000000000000000000008152600401610350906116b0565b60405180910390fd5b608c81511061039d576040517f08c379a0000000000000000000000000000000000000000000000000000000008152600401610394906116d0565b60405180910390fd5b600060405180608001604052803373ffffffffffffffffffffffffffffffffffffffff16815260200183815260200142815260200160008152509050600081908060018154018082558091505060019003906000526020600020906004020160009091909190915060008201518160000160006101000a81548173ffffffffffffffffffffffffffffffffffffffff021916908373ffffffffffffffffffffffffffffffffffffffff1602179055506020820151816001019080519060200190610468929190610ecf565b50604082015181600201556060820151816003015550505050565b6002818051602081018201805184825260208301602085012081835280955050505050506000915090508060000160009054906101000a900473ffffffffffffffffffffffffffffffffffffffff16908060010180546104e29061186c565b80601f016020809104026020016040519081016040528092919081815260200182805461050e9061186c565b801561055b5780601f106105305761010080835404028352916020019161055b565b820191906000526020600020905b81548152906001019060200180831161053e57829003601f168201915b5050505050908060020180546105709061186c565b80601f016020809104026020016040519081016040528092919081815260200182805461059c9061186c565b80156105e95780601f106105be576101008083540402835291602001916105e9565b820191906000526020600020905b8154815290600101906020018083116105cc57829003601f168201915b5050505050908060030180546105fe9061186c565b80601f016020809104026020016040519081016040528092919081815260200182805461062a9061186c565b80156106775780601f1061064c57610100808354040283529160200191610677565b820191906000526020600020905b81548152906001019060200180831161065a57829003601f168201915b50505050509080600401805461068c9061186c565b80601f01602080910402602001604051908101604052809291908181526020018280546106b89061186c565b80156107055780601f106106da57610100808354040283529160200191610705565b820191906000526020600020905b8154815290600101906020018083116106e857829003601f168201915b5050505050905085565b610717610f55565b6002600160008473ffffffffffffffffffffffffffffffffffffffff1673ffffffffffffffffffffffffffffffffffffffff168152602001908152602001600020604051610765919061153a565b90815260200160405180910390206040518060a00160405290816000820160009054906101000a900473ffffffffffffffffffffffffffffffffffffffff1673ffffffffffffffffffffffffffffffffffffffff1673ffffffffffffffffffffffffffffffffffffffff1681526020016001820180546107e49061186c565b80601f01602080910402602001604051908101604052809291908181526020018280546108109061186c565b801561085d5780601f106108325761010080835404028352916020019161085d565b820191906000526020600020905b81548152906001019060200180831161084057829003601f168201915b505050505081526020016002820180546108769061186c565b80601f01602080910402602001604051908101604052809291908181526020018280546108a29061186c565b80156108ef5780601f106108c4576101008083540402835291602001916108ef565b820191906000526020600020905b8154815290600101906020018083116108d257829003601f168201915b505050505081526020016003820180546109089061186c565b80601f01602080910402602001604051908101604052809291908181526020018280546109349061186c565b80156109815780601f1061095657610100808354040283529160200191610981565b820191906000526020600020905b81548152906001019060200180831161096457829003601f168201915b5050505050815260200160048201805461099a9061186c565b80601f01602080910402602001604051908101604052809291908181526020018280546109c69061186c565b8015610a135780601f106109e857610100808354040283529160200191610a13565b820191906000526020600020905b8154815290600101906020018083116109f657829003601f168201915b5050505050815250509050919050565b60606000805480602002602001604051908101604052809291908181526020016000905b82821015610b7557838290600052602060002090600402016040518060800160405290816000820160009054906101000a900473ffffffffffffffffffffffffffffffffffffffff1673ffffffffffffffffffffffffffffffffffffffff1673ffffffffffffffffffffffffffffffffffffffff168152602001600182018054610ad09061186c565b80601f0160208091040260200160405190810160405280929190818152602001828054610afc9061186c565b8015610b495780601f10610b1e57610100808354040283529160200191610b49565b820191906000526020600020905b815481529060010190602001808311610b2c57829003601f168201915b505050505081526020016002820154815260200160038201548152505081526020019060010190610a47565b50505050905090565b60016020528060005260406000206000915090508054610b9d9061186c565b80601f0160208091040260200160405190810160405280929190818152602001828054610bc99061186c565b8015610c165780601f10610beb57610100808354040283529160200191610c16565b820191906000526020600020905b815481529060010190602001808311610bf957829003601f168201915b505050505081565b6000600160003373ffffffffffffffffffffffffffffffffffffffff1673ffffffffffffffffffffffffffffffffffffffff1681526020019081526020016000208054610c6a9061186c565b905014610cac576040517f08c379a0000000000000000000000000000000000000000000000000000000008152600401610ca390611650565b60405180910390fd5b600073ffffffffffffffffffffffffffffffffffffffff16600285604051610cd49190611523565b908152602001604051809103902060000160009054906101000a900473ffffffffffffffffffffffffffffffffffffffff1673ffffffffffffffffffffffffffffffffffffffff1614610d5c576040517f08c379a0000000000000000000000000000000000000000000000000000000008152600401610d5390611690565b60405180910390fd5b6040518060a001604052803373ffffffffffffffffffffffffffffffffffffffff16815260200184815260200185815260200183815260200182815250600285604051610da99190611523565b908152602001604051809103902060008201518160000160006101000a81548173ffffffffffffffffffffffffffffffffffffffff021916908373ffffffffffffffffffffffffffffffffffffffff1602179055506020820151816001019080519060200190610e1a929190610ecf565b506040820151816002019080519060200190610e37929190610ecf565b506060820151816003019080519060200190610e54929190610ecf565b506080820151816004019080519060200190610e71929190610ecf565b5090505083600160003373ffffffffffffffffffffffffffffffffffffffff1673ffffffffffffffffffffffffffffffffffffffff1681526020019081526020016000209080519060200190610ec8929190610ecf565b5050505050565b828054610edb9061186c565b90600052602060002090601f016020900481019282610efd5760008555610f44565b82601f10610f1657805160ff1916838001178555610f44565b82800160010185558215610f44579182015b82811115610f43578251825591602001919060010190610f28565b5b509050610f519190610f9a565b5090565b6040518060a00160405280600073ffffffffffffffffffffffffffffffffffffffff168152602001606081526020016060815260200160608152602001606081525090565b5b80821115610fb3576000816000905550600101610f9b565b5090565b6000610fca610fc584611737565b611712565b905082815260208101848484011115610fe257600080fd5b610fed84828561182a565b509392505050565b60008135905061100481611aa3565b92915050565b600082601f83011261101b57600080fd5b813561102b848260208601610fb7565b91505092915050565b60008135905061104381611aba565b92915050565b60006020828403121561105b57600080fd5b600061106984828501610ff5565b91505092915050565b60006020828403121561108457600080fd5b600082013567ffffffffffffffff81111561109e57600080fd5b6110aa8482850161100a565b91505092915050565b600080600080608085870312156110c957600080fd5b600085013567ffffffffffffffff8111156110e357600080fd5b6110ef8782880161100a565b945050602085013567ffffffffffffffff81111561110c57600080fd5b6111188782880161100a565b935050604085013567ffffffffffffffff81111561113557600080fd5b6111418782880161100a565b925050606085013567ffffffffffffffff81111561115e57600080fd5b61116a8782880161100a565b91505092959194509250565b60006020828403121561118857600080fd5b600061119684828501611034565b91505092915050565b60006111ab8383611417565b905092915050565b6111bc816117ee565b82525050565b6111cb816117ee565b82525050565b60006111dc8261178d565b6111e681856117b0565b9350836020820285016111f885611768565b8060005b858110156112345784840389528151611215858261119f565b9450611220836117a3565b925060208a019950506001810190506111fc565b50829750879550505050505092915050565b600061125182611798565b61125b81856117c1565b935061126b818560208601611839565b6112748161192d565b840191505092915050565b600061128a82611798565b61129481856117d2565b93506112a4818560208601611839565b6112ad8161192d565b840191505092915050565b60006112c382611798565b6112cd81856117e3565b93506112dd818560208601611839565b80840191505092915050565b600081546112f68161186c565b61130081866117e3565b9450600182166000811461131b576001811461132c5761135f565b60ff1983168652818601935061135f565b61133585611778565b60005b8381101561135757815481890152600182019150602081019050611338565b838801955050505b50505092915050565b60006113756013836117d2565b91506113808261193e565b602082019050919050565b60006113986032836117d2565b91506113a382611967565b604082019050919050565b60006113bb602a836117d2565b91506113c6826119b6565b604082019050919050565b60006113de6032836117d2565b91506113e982611a05565b604082019050919050565b60006114016021836117d2565b915061140c82611a54565b604082019050919050565b600060808301600083015161142f60008601826111b3565b50602083015184820360208601526114478282611246565b915050604083015161145c6040860182611505565b50606083015161146f6060860182611505565b508091505092915050565b600060a08301600083015161149260008601826111b3565b50602083015184820360208601526114aa8282611246565b915050604083015184820360408601526114c48282611246565b915050606083015184820360608601526114de8282611246565b915050608083015184820360808601526114f88282611246565b9150508091505092915050565b61150e81611820565b82525050565b61151d81611820565b82525050565b600061152f82846112b8565b915081905092915050565b600061154682846112e9565b915081905092915050565b600060a08201905061156660008301886111c2565b8181036020830152611578818761127f565b9050818103604083015261158c818661127f565b905081810360608301526115a0818561127f565b905081810360808301526115b4818461127f565b90509695505050505050565b60006080820190506115d560008301876111c2565b81810360208301526115e7818661127f565b90506115f66040830185611514565b6116036060830184611514565b95945050505050565b6000602082019050818103600083015261162681846111d1565b905092915050565b60006020820190508181036000830152611648818461127f565b905092915050565b6000602082019050818103600083015261166981611368565b9050919050565b600060208201905081810360008301526116898161138b565b9050919050565b600060208201905081810360008301526116a9816113ae565b9050919050565b600060208201905081810360008301526116c9816113d1565b9050919050565b600060208201905081810360008301526116e9816113f4565b9050919050565b6000602082019050818103600083015261170a818461147a565b905092915050565b600061171c61172d565b9050611728828261189e565b919050565b6000604051905090565b600067ffffffffffffffff821115611752576117516118fe565b5b61175b8261192d565b9050602081019050919050565b6000819050602082019050919050565b60008190508160005260206000209050919050565b600081519050919050565b600081519050919050565b6000602082019050919050565b600082825260208201905092915050565b600082825260208201905092915050565b600082825260208201905092915050565b600081905092915050565b60006117f982611800565b9050919050565b600073ffffffffffffffffffffffffffffffffffffffff82169050919050565b6000819050919050565b82818337600083830152505050565b60005b8381101561185757808201518184015260208101905061183c565b83811115611866576000848401525b50505050565b6000600282049050600182168061188457607f821691505b60208210811415611898576118976118cf565b5b50919050565b6118a78261192d565b810181811067ffffffffffffffff821117156118c6576118c56118fe565b5b80604052505050565b7f4e487b7100000000000000000000000000000000000000000000000000000000600052602260045260246000fd5b7f4e487b7100000000000000000000000000000000000000000000000000000000600052604160045260246000fd5b6000601f19601f8301169050919050565b7f5573657220616c72656164792065786973747300000000000000000000000000600082015250565b7f596f75204d7573742068617665207369676e656420757020746f20757365207460008201527f6869732066756e6374696f6e616c6974792e0000000000000000000000000000602082015250565b7f557365726e616d652069732074616b656e2c20706c656173652074727920616e60008201527f6f74686572206f6e652e00000000000000000000000000000000000000000000602082015250565b7f596f75206d75737420726967687420736f6d657468696e6720696e206f72646560008201527f7220746f20706f737420612064776565742e0000000000000000000000000000602082015250565b7f436861726163746572206d757374206265206c6f776572207468616e2031343060008201527f2e00000000000000000000000000000000000000000000000000000000000000602082015250565b611aac816117ee565b8114611ab757600080fd5b50565b611ac381611820565b8114611ace57600080fd5b5056fea2646970667358221220bae5f3559f9a07fce66ac9c8aee7c6a49cfd91004921e49ab3cb00d6ea8d6dce64736f6c63430008040033",
  "linkReferences": {},
  "deployedLinkReferences": {}
}